:100000000C9436000C945E000C945E000C945E0020
:100010000C945E000C945E000C945E000C945E00E8
:100020000C945E000C945E000C945E000C945E00D8
:100030000C945E000C945E000C945E000C945E00C8
:100040000C94B0050C945E000C945E000C945E0061
:100050000C945E000C945E000C945E000C945E00A8
:100060000C945E000C945E0007040A0611241FBE67
:10007000CFEFD8E0DEBFCDBF11E0A0E0B1E0E4EE0D
:10008000FCE002C005900D92AC30B107D9F721E039
:10009000ACE0B1E001C01D92A831B207E1F710E079
:1000A000C6E3D0E004C02197FE010E946A06C43373
:1000B000D107C9F70E9462010C9470060C940000ED
:1000C000CF93DF9300D0CDB7DEB79A838983898140
:1000D0009A81FC01108211821282138289819A8195
:1000E000FC01148215821682178289819A81FC0193
:1000F000108600000F900F90DF91CF910895CF935D
:10010000DF9300D0CDB7DEB79A83898389819A8146
:100110000496BC0187E191E00E94860521E00197E9
:1001200009F020E02223B1F089819A81049628EE1B
:1001300033E040E050E0BC0187E191E00E945305CC
:1001400089819A81FC01808521E0280F89819A812B
:10015000FC01208700000F900F90DF91CF91089550
:10016000CF93DF9300D0CDB7DEB79A83898389819F
:100170009A81BC0187E191E00E94860521E0019708
:1001800009F020E0222359F089819A8124EF31E09F
:1001900040E050E0BC0187E191E00E94530500007F
:1001A0000F900F90DF91CF910895CF93DF9300D000
:1001B000CDB7DEB79A83898389819A81BC0187E1B3
:1001C00091E00E9486050F900F90DF91CF910895E6
:1001D000CF93DF9300D000D01F92CDB7DEB79A83C4
:1001E00089836B835D834C838C819D81019789F426
:1001F00089819A81FC0184819581FC01308189810A
:100200009A81FC01848195812B81232BFC01208321
:1002100013C089819A81FC0184819581FC018081D0
:10022000982F8B818095292F282389819A81FC0121
:1002300084819581FC01208300000F900F900F9026
:100240000F900F90DF91CF910895CF93DF9300D05F
:1002500000D01F92CDB7DEB79A8389836B835D830D
:100260004C838C819D81019789F489819A81FC015D
:1002700082819381FC01308189819A81FC01828194
:1002800093812B81232BFC01208313C089819A81C8
:10029000FC0182819381FC018081982F8B81809564
:1002A000292F282389819A81FC0182819381FC0175
:1002B000208300000F900F900F900F900F90DF9110
:1002C000CF910895CF93DF93CDB7DEB7F8947894AC
:1002D000FFCFCF93DF9300D000D000D0CDB7DEB7F3
:1002E0009E838D838D819E819C0140E050E087E05C
:1002F00090E0A0E0B0E0BC01CD010E944806DA0128
:10030000C90189839A83AB83BC8389819A81AB813C
:10031000BC81892B8A2B8B2B61F089819A81AB81DF
:10032000BC810197A109B10989839A83AB83BC83FE
:10033000ECCF000026960FB6F894DEBF0FBECDBFFF
:10034000DF91CF910895CF93DF93CDB7DEB741E032
:1003500050E060E28CE091E00E94E80081E090E0F3
:100360000E94690140E050E060E28CE091E00E9470
:10037000E80081E090E00E9469010000DF91CF91E8
:100380000895CF93DF93CDB7DEB741E050E062E050
:100390008CE091E00E94E80081E090E00E94690119
:1003A00040E050E062E08CE091E00E94E80081E0F3
:1003B00090E00E9469010000DF91CF9108950F93B2
:1003C000CF93DF9300D0CDB7DEB79A83898340E027
:1003D00050E06AE28CE091E00E94E80041E050E0E9
:1003E00061E08CE091E00E94E80041E050E06BE2C7
:1003F0008CE091E00E94250189819A8161E070E0A2
:100400000E94BA0389819A8100E020E040E06AE01E
:100410000E94180289819A8123E447E169E50E94DC
:10042000190300000F900F90DF91CF910F91089565
:100430000F93CF93DF93CDB7DEB729970FB6F8941C
:10044000DEBF0FBECDBF9D838C836E834F83288715
:10045000098741E050E062E08CE091E00E94E80012
:1004600019828981843030F40E94A30189818F5FD1
:100470008983F7CF40E050E062E08CE091E00E9499
:10048000E8001A828A81833008F06BC087E08B8392
:100490008B81882331F18E81882F90E02B81222F50
:1004A00030E02150310902C0959587952A95E2F7F1
:1004B00081709927892B41F041E050E068E08CE0A1
:1004C00091E00E94E80007C040E050E068E08CE066
:1004D00091E00E94E8000E94A3018B8181508B83F0
:1004E000D7CF8F81882341F041E050E068E08CE075
:1004F00091E00E94E80007C040E050E068E08CE036
:1005000091E00E94E8000E94A3018885882341F0C1
:1005100041E050E068E08CE091E00E94E80007C014
:1005200040E050E068E08CE091E00E94E8000E942A
:10053000A3018985882341F041E050E068E08CE028
:1005400091E00E94E80007C040E050E068E08CE0E5
:1005500091E00E94E8000E94A3018A818F5F8A8354
:1005600091CF0E94C101000029960FB6F894DEBF1A
:100570000FBECDBFDF91CF910F910895CF93DF9341
:1005800000D000D01F92CDB7DEB79C838B836D83E4
:100590008D818A8319828981883020F58A81882F0C
:1005A00090E02981222F30E002C0959587952A9509
:1005B000E2F781709927892B41F041E050E068E033
:1005C0008CE091E00E94E80007C040E050E068E065
:1005D0008CE091E00E94E8000E94A30189818F5F76
:1005E0008983D9CF00000F900F900F900F900F903C
:1005F000DF91CF910895CF93DF9300D01F92CDB7B5
:10060000DEB79B838A8319828981863048F48A8188
:100610009B8160E00E94BE0289818F5F8983F4CF55
:100620000E94C10100000F900F900F90DF91CF91B9
:100630000895CF93DF9300D000D01F92CDB7DEB7DF
:100640009A8389836B834C832D839B818DEC989F48
:10065000812D1124869586958695882F90E080506F
:100660009F4FFC01208189819A81622F0E94BE02E6
:100670002B818DEC289F812D1124982F969596958E
:100680009695892F880F880F890F880F922F981BB6
:10069000892F90E080509F4FFC01208189819A81B1
:1006A000622F0E94BE029C818DEC989F812D1124A7
:1006B000869586958695882F90E080509F4FFC0107
:1006C000208189819A81622F0E94BE022C818DEC4B
:1006D000289F812D1124982F969596959695892F70
:1006E000880F880F890F880F922F981B892F90E011
:1006F00080509F4FFC01208189819A81622F0E9446
:10070000BE029D818DEC989F812D11248695869542
:100710008695882F90E080509F4FFC012081898131
:100720009A81622F0E94BE022D818DEC289F812D1F
:100730001124982F969596959695892F880F880F56
:10074000890F880F922F981B892F90E080509F4F20
:10075000FC01208189819A81622F0E94BE020E9441
:10076000C10100000F900F900F900F900F90DF913C
:10077000CF910895CF93DF9300D000D0CDB7DEB7EF
:100780009A8389837C836B838B819C81892B41F045
:1007900040E050E061E08CE091E00E94E80007C09A
:1007A00041E050E061E08CE091E00E94E800000050
:1007B0000F900F900F900F90DF91CF910895CF93EE
:1007C000DF9300D000D0CDB7DEB79A8389837C83D6
:1007D0006B8389819A81019791F48B819C81019629
:1007E00071F425E230E044E250E063E270E08CE036
:1007F00091E00E94170682E191E00E94DF01000073
:100800000F900F900F900F90DF91CF910895CF939D
:10081000DF93CDB7DEB76FEF7FEF81E090E00E940E
:10082000DF03DF91CF910895EF92FF920F931F9313
:10083000CF93DF9300D000D000D01F92CDB7DEB7AA
:100840009B838A837D836C835F834E8384E490E003
:10085000FC01108285E490E0FC0110828A819B817A
:100860009C0140E050E080E090E8A0E7B0E0BC01EF
:10087000CD010E944806DA01C9017C018D018C81FD
:100880009D819C0140E050E0C801B7010E944806EC
:10089000DA01C901898387E490E02981FC01208382
:1008A00088E490E02981FC01208386E490E029819E
:1008B0002195FC01208386E490E0FC0120818E815B
:1008C0009F81FC0120838C819D8180349105E9F01A
:1008D0008134910530F48130910559F0089779F011
:1008E00026C08115F1E09F07B1F081159440C9F051
:1008F0001EC085E490E021E0FC01208318C085E45F
:1009000090E022E0FC01208312C085E490E023E027
:10091000FC0120830CC085E490E024E0FC012083EE
:1009200006C085E490E025E0FC01208300008EE60F
:1009300090E0FC0120818EE690E02160FC012083A4
:10094000000027960FB6F894DEBF0FBECDBFDF9133
:10095000CF911F910F91FF90EF900895CF93DF9368
:1009600000D0CDB7DEB79A83898300000F900F9037
:10097000DF91CF910895EF92FF920F931F93CF9342
:10098000DF9300D000D000D01F92CDB7DEB79B839D
:100990008A837D836C835F834E8384E490E0FC01D3
:1009A000108285E490E0FC0110828C819D819C0185
:1009B00040E050E080E090E8A0E7B0E0BC01CD016D
:1009C0000E944806DA01C9017C018D018E819F8158
:1009D0009C0140E050E0C801B7010E944806DA01DE
:1009E000C901898387E490E02981FC01208388E4A0
:1009F00090E02981FC01208386E490E02981219503
:100A0000FC01208386E490E0FC01808180930A0150
:100A10008E819F8180349105E9F08134910530F415
:100A20008130910559F0089779F026C08115F1E0E1
:100A30009F07B1F081159440C9F01EC085E490E095
:100A400021E0FC01208318C085E490E022E0FC0155
:100A5000208312C085E490E023E0FC0120830CC0D9
:100A600085E490E024E0FC01208306C085E490E06A
:100A700025E0FC01208300008EE690E0FC0120814F
:100A80008EE690E02160FC012083000027960FB6DF
:100A9000F894DEBF0FBECDBFDF91CF911F910F91B4
:100AA000FF90EF900895CF93DF93CDB7DEB72897EF
:100AB0000FB6F894DEBF0FBECDBF9A8389837C83C7
:100AC0006B832D833E834F83588720911301309190
:100AD000140140911501509116018D819E81AF81C5
:100AE000B885820F931FA41FB51F2B813C81F9018C
:100AF00080839183A283B383000028960FB6F89475
:100B0000DEBF0FBECDBFDF91CF910895CF93DF93AE
:100B100000D000D0CDB7DEB79A8389837C836B8306
:100B20008B819C81FC0120813181428153818091A4
:100B3000130190911401A0911501B091160128178D
:100B400039074A075B0718F481E090E002C080E0B3
:100B500090E00F900F900F900F90DF91CF9108953C
:100B60001F920F920FB60F9211242F938F939F9382
:100B7000AF93BF93EF93FF93CF93DF93CDB7DEB7E0
:100B800086E490E020910A01FC012083809113010A
:100B900090911401A0911501B09116010196A11D2B
:100BA000B11D8093130190931401A0931501B0938C
:100BB00016010000DF91CF91FF91EF91BF91AF91AE
:100BC0009F918F912F910F900FBE0F901F901895AE
:100BD000CF93DF9300D000D0CDB7DEB79A8389835F
:100BE0007C836B8389819A81019761F48B819C81DD
:100BF000019641F440E450E068EE73E087E191E053
:100C00000E94BB0400000F900F900F900F90DF9197
:100C1000CF910895CF93DF93CDB7DEB76FEF7FEF1E
:100C200081E090E00E94E805DF91CF910895CF9395
:100C3000DF93CDB7DEB728970FB6F894DEBF0FBEAF
:100C4000CDBF9A8389837C836B835E834D83388792
:100C50002F8389819A812B813C81FC013183208300
:100C600089819A812D813E81FC0133832283898190
:100C70009A812F813885FC013583248300002896D2
:100C80000FB6F894DEBF0FBECDBFDF91CF910895B0
:100C9000A1E21A2EAA1BBB1BFD010DC0AA1FBB1F80
:100CA000EE1FFF1FA217B307E407F50720F0A21BF2
:100CB000B30BE40BF50B661F771F881F991F1A945F
:100CC00069F760957095809590959B01AC01BD0189
:100CD000CF010895EE0FFF1F0590F491E02D0994C8
:040CE000F894FFCFB6
:0C0CE40077416E6B593B3F617F7B010044
:00000001FF
